{
  "_format": "hh-sol-artifact-1",
  "contractName": "Treasury",
  "sourceName": "contracts/Treasury.sol",
  "abi": [
    {
      "inputs": [],
      "name": "UNAUTHORIZED",
      "type": "error"
    },
    {
      "anonymous": false,
      "inputs": [
        {
          "indexed": true,
          "internalType": "address",
          "name": "owner",
          "type": "address"
        },
        {
          "indexed": true,
          "internalType": "address",
          "name": "spender",
          "type": "address"
        },
        {
          "indexed": false,
          "internalType": "uint256",
          "name": "value",
          "type": "uint256"
        }
      ],
      "name": "Approval",
      "type": "event"
    },
    {
      "anonymous": false,
      "inputs": [
        {
          "indexed": true,
          "internalType": "address",
          "name": "token",
          "type": "address"
        },
        {
          "indexed": false,
          "internalType": "uint256",
          "name": "amount",
          "type": "uint256"
        }
      ],
      "name": "DepositERC20",
      "type": "event"
    },
    {
      "anonymous": false,
      "inputs": [
        {
          "indexed": false,
          "internalType": "uint8",
          "name": "version",
          "type": "uint8"
        }
      ],
      "name": "Initialized",
      "type": "event"
    },
    {
      "anonymous": false,
      "inputs": [
        {
          "indexed": false,
          "internalType": "uint256",
          "name": "oldFee",
          "type": "uint256"
        },
        {
          "indexed": false,
          "internalType": "uint256",
          "name": "newFee",
          "type": "uint256"
        }
      ],
      "name": "NewPerformanceFee",
      "type": "event"
    },
    {
      "anonymous": false,
      "inputs": [
        {
          "indexed": true,
          "internalType": "address",
          "name": "previousOwner",
          "type": "address"
        },
        {
          "indexed": true,
          "internalType": "address",
          "name": "newOwner",
          "type": "address"
        }
      ],
      "name": "OwnershipTransferred",
      "type": "event"
    },
    {
      "anonymous": false,
      "inputs": [
        {
          "indexed": true,
          "internalType": "address",
          "name": "from",
          "type": "address"
        },
        {
          "indexed": true,
          "internalType": "address",
          "name": "to",
          "type": "address"
        },
        {
          "indexed": false,
          "internalType": "uint256",
          "name": "value",
          "type": "uint256"
        }
      ],
      "name": "Transfer",
      "type": "event"
    },
    {
      "anonymous": false,
      "inputs": [
        {
          "indexed": true,
          "internalType": "address",
          "name": "token",
          "type": "address"
        },
        {
          "indexed": true,
          "internalType": "address",
          "name": "recipient",
          "type": "address"
        },
        {
          "indexed": false,
          "internalType": "uint256",
          "name": "amount",
          "type": "uint256"
        }
      ],
      "name": "WithdrawERC20",
      "type": "event"
    },
    {
      "inputs": [
        {
          "internalType": "address",
          "name": "_admin",
          "type": "address"
        },
        {
          "internalType": "address",
          "name": "_escrow",
          "type": "address"
        }
      ],
      "name": "_initialize",
      "outputs": [],
      "stateMutability": "nonpayable",
      "type": "function"
    },
    {
      "inputs": [],
      "name": "admin",
      "outputs": [
        {
          "internalType": "address",
          "name": "",
          "type": "address"
        }
      ],
      "stateMutability": "view",
      "type": "function"
    },
    {
      "inputs": [
        {
          "internalType": "address",
          "name": "owner",
          "type": "address"
        },
        {
          "internalType": "address",
          "name": "spender",
          "type": "address"
        }
      ],
      "name": "allowance",
      "outputs": [
        {
          "internalType": "uint256",
          "name": "",
          "type": "uint256"
        }
      ],
      "stateMutability": "view",
      "type": "function"
    },
    {
      "inputs": [
        {
          "internalType": "address",
          "name": "spender",
          "type": "address"
        },
        {
          "internalType": "uint256",
          "name": "amount",
          "type": "uint256"
        }
      ],
      "name": "approve",
      "outputs": [
        {
          "internalType": "bool",
          "name": "",
          "type": "bool"
        }
      ],
      "stateMutability": "nonpayable",
      "type": "function"
    },
    {
      "inputs": [
        {
          "internalType": "address",
          "name": "",
          "type": "address"
        }
      ],
      "name": "authorized",
      "outputs": [
        {
          "internalType": "bool",
          "name": "",
          "type": "bool"
        }
      ],
      "stateMutability": "view",
      "type": "function"
    },
    {
      "inputs": [
        {
          "internalType": "address",
          "name": "account",
          "type": "address"
        }
      ],
      "name": "balanceOf",
      "outputs": [
        {
          "internalType": "uint256",
          "name": "",
          "type": "uint256"
        }
      ],
      "stateMutability": "view",
      "type": "function"
    },
    {
      "inputs": [],
      "name": "decimals",
      "outputs": [
        {
          "internalType": "uint8",
          "name": "",
          "type": "uint8"
        }
      ],
      "stateMutability": "view",
      "type": "function"
    },
    {
      "inputs": [
        {
          "internalType": "address",
          "name": "spender",
          "type": "address"
        },
        {
          "internalType": "uint256",
          "name": "subtractedValue",
          "type": "uint256"
        }
      ],
      "name": "decreaseAllowance",
      "outputs": [
        {
          "internalType": "bool",
          "name": "",
          "type": "bool"
        }
      ],
      "stateMutability": "nonpayable",
      "type": "function"
    },
    {
      "inputs": [
        {
          "internalType": "uint256",
          "name": "_amount",
          "type": "uint256"
        },
        {
          "internalType": "address",
          "name": "_token",
          "type": "address"
        },
        {
          "internalType": "address",
          "name": "_sender",
          "type": "address"
        }
      ],
      "name": "deposit",
      "outputs": [],
      "stateMutability": "nonpayable",
      "type": "function"
    },
    {
      "inputs": [],
      "name": "escrow",
      "outputs": [
        {
          "internalType": "address",
          "name": "",
          "type": "address"
        }
      ],
      "stateMutability": "view",
      "type": "function"
    },
    {
      "inputs": [],
      "name": "fee",
      "outputs": [
        {
          "internalType": "uint256",
          "name": "",
          "type": "uint256"
        }
      ],
      "stateMutability": "view",
      "type": "function"
    },
    {
      "inputs": [],
      "name": "feeDivisor",
      "outputs": [
        {
          "internalType": "uint256",
          "name": "",
          "type": "uint256"
        }
      ],
      "stateMutability": "view",
      "type": "function"
    },
    {
      "inputs": [
        {
          "internalType": "uint256",
          "name": "_amount",
          "type": "uint256"
        }
      ],
      "name": "getFee",
      "outputs": [
        {
          "internalType": "uint256",
          "name": "",
          "type": "uint256"
        }
      ],
      "stateMutability": "view",
      "type": "function"
    },
    {
      "inputs": [
        {
          "internalType": "address",
          "name": "_token",
          "type": "address"
        }
      ],
      "name": "getTokenBalance",
      "outputs": [
        {
          "internalType": "uint256",
          "name": "",
          "type": "uint256"
        }
      ],
      "stateMutability": "view",
      "type": "function"
    },
    {
      "inputs": [
        {
          "internalType": "address",
          "name": "spender",
          "type": "address"
        },
        {
          "internalType": "uint256",
          "name": "addedValue",
          "type": "uint256"
        }
      ],
      "name": "increaseAllowance",
      "outputs": [
        {
          "internalType": "bool",
          "name": "",
          "type": "bool"
        }
      ],
      "stateMutability": "nonpayable",
      "type": "function"
    },
    {
      "inputs": [],
      "name": "name",
      "outputs": [
        {
          "internalType": "string",
          "name": "",
          "type": "string"
        }
      ],
      "stateMutability": "view",
      "type": "function"
    },
    {
      "inputs": [],
      "name": "owner",
      "outputs": [
        {
          "internalType": "address",
          "name": "",
          "type": "address"
        }
      ],
      "stateMutability": "view",
      "type": "function"
    },
    {
      "inputs": [],
      "name": "renounceOwnership",
      "outputs": [],
      "stateMutability": "nonpayable",
      "type": "function"
    },
    {
      "inputs": [
        {
          "internalType": "address",
          "name": "_address",
          "type": "address"
        },
        {
          "internalType": "bool",
          "name": "_status",
          "type": "bool"
        }
      ],
      "name": "setAuthorized",
      "outputs": [],
      "stateMutability": "nonpayable",
      "type": "function"
    },
    {
      "inputs": [
        {
          "internalType": "uint256",
          "name": "_fee",
          "type": "uint256"
        }
      ],
      "name": "setFee",
      "outputs": [],
      "stateMutability": "nonpayable",
      "type": "function"
    },
    {
      "inputs": [],
      "name": "symbol",
      "outputs": [
        {
          "internalType": "string",
          "name": "",
          "type": "string"
        }
      ],
      "stateMutability": "view",
      "type": "function"
    },
    {
      "inputs": [
        {
          "internalType": "address",
          "name": "_token",
          "type": "address"
        },
        {
          "internalType": "uint256",
          "name": "_amount",
          "type": "uint256"
        }
      ],
      "name": "toAdmin",
      "outputs": [],
      "stateMutability": "nonpayable",
      "type": "function"
    },
    {
      "inputs": [],
      "name": "totalSupply",
      "outputs": [
        {
          "internalType": "uint256",
          "name": "",
          "type": "uint256"
        }
      ],
      "stateMutability": "view",
      "type": "function"
    },
    {
      "inputs": [
        {
          "internalType": "address",
          "name": "to",
          "type": "address"
        },
        {
          "internalType": "uint256",
          "name": "amount",
          "type": "uint256"
        }
      ],
      "name": "transfer",
      "outputs": [
        {
          "internalType": "bool",
          "name": "",
          "type": "bool"
        }
      ],
      "stateMutability": "nonpayable",
      "type": "function"
    },
    {
      "inputs": [
        {
          "internalType": "address",
          "name": "_address",
          "type": "address"
        }
      ],
      "name": "transferAdmin",
      "outputs": [],
      "stateMutability": "nonpayable",
      "type": "function"
    },
    {
      "inputs": [
        {
          "internalType": "address",
          "name": "from",
          "type": "address"
        },
        {
          "internalType": "address",
          "name": "to",
          "type": "address"
        },
        {
          "internalType": "uint256",
          "name": "amount",
          "type": "uint256"
        }
      ],
      "name": "transferFrom",
      "outputs": [
        {
          "internalType": "bool",
          "name": "",
          "type": "bool"
        }
      ],
      "stateMutability": "nonpayable",
      "type": "function"
    },
    {
      "inputs": [
        {
          "internalType": "address",
          "name": "newOwner",
          "type": "address"
        }
      ],
      "name": "transferOwnership",
      "outputs": [],
      "stateMutability": "nonpayable",
      "type": "function"
    },
    {
      "inputs": [
        {
          "internalType": "address",
          "name": "_token",
          "type": "address"
        },
        {
          "internalType": "address",
          "name": "_creator",
          "type": "address"
        },
        {
          "internalType": "uint256",
          "name": "_creatorCounterpart",
          "type": "uint256"
        },
        {
          "internalType": "address",
          "name": "_provider",
          "type": "address"
        },
        {
          "internalType": "uint256",
          "name": "_providerCounterpart",
          "type": "uint256"
        },
        {
          "internalType": "uint256",
          "name": "_cut",
          "type": "uint256"
        }
      ],
      "name": "withdraw",
      "outputs": [],
      "stateMutability": "nonpayable",
      "type": "function"
    }
  ],
  "bytecode": "0x6080604052600a60ca5561271060cb5534801561001b57600080fd5b506119748061002b6000396000f3fe608060405234801561001057600080fd5b50600436106101c45760003560e01c8063909a6e32116100f9578063ddca3f4311610097578063f2fde38b11610071578063f2fde38b146103dd578063f494ea02146103f0578063f851a44014610403578063fcee45f41461041657600080fd5b8063ddca3f43146103ae578063e2fdcc17146103b7578063e5c9c2ed146103ca57600080fd5b8063a457c2d7116100d3578063a457c2d71461032c578063a9059cbb1461033f578063b918161114610352578063dd62ed3e1461037557600080fd5b8063909a6e321461030857806395d89b411461031b5780639a36f9321461032357600080fd5b80633aecd0e311610166578063711bf9b211610140578063711bf9b2146102b5578063715018a6146102c857806375829def146102d05780638da5cb5b146102e357600080fd5b80633aecd0e31461026657806369fe0e2d1461027957806370a082311461028c57600080fd5b806323b872dd116101a257806323b872dd1461021c5780632e2d29841461022f578063313ce56714610244578063395093511461025357600080fd5b806306fdde03146101c9578063095ea7b3146101e757806318160ddd1461020a575b600080fd5b6101d1610429565b6040516101de9190611658565b60405180910390f35b6101fa6101f53660046116a7565b6104bb565b60405190151581526020016101de565b6099545b6040519081526020016101de565b6101fa61022a3660046116d1565b6104d3565b61024261023d36600461170d565b6104f9565b005b604051601281526020016101de565b6101fa6102613660046116a7565b610556565b61020e610274366004611749565b610595565b610242610287366004611764565b610615565b61020e61029a366004611749565b6001600160a01b031660009081526097602052604090205490565b6102426102c336600461178b565b6106d7565b61024261072d565b6102426102de366004611749565b610741565b6033546001600160a01b03165b6040516001600160a01b0390911681526020016101de565b6102426103163660046117c2565b61079b565b6101d161090f565b61020e60cb5481565b6101fa61033a3660046116a7565b61091e565b6101fa61034d3660046116a7565b6109d3565b6101fa610360366004611749565b60c96020526000908152604090205460ff1681565b61020e610383366004611821565b6001600160a01b03918216600090815260986020908152604080832093909416825291909152205490565b61020e60ca5481565b60cd546102f0906001600160a01b031681565b6102426103d8366004611821565b6109e1565b6102426103eb366004611749565b610c10565b6102426103fe3660046116a7565b610ca0565b60cc546102f0906001600160a01b031681565b61020e610424366004611764565b610ceb565b6060609a805461043890611854565b80601f016020809104026020016040519081016040528092919081815260200182805461046490611854565b80156104b15780601f10610486576101008083540402835291602001916104b1565b820191906000526020600020905b81548152906001019060200180831161049457829003601f168201915b5050505050905090565b6000336104c9818585610d08565b5060019392505050565b6000336104e1858285610e2c565b6104ec858585610ebe565b60019150505b9392505050565b61050e6001600160a01b0383168230866110bb565b816001600160a01b03167f27f44e9a3001987fb4861e2d482738bc6a12b52de72ca3a5216157b75c28f81c8460405161054991815260200190565b60405180910390a2505050565b3360008181526098602090815260408083206001600160a01b03871684529091528120549091906104c990829086906105909087906118a5565b610d08565b6040516370a0823160e01b81523060048201526000906001600160a01b038316906370a082319060240160206040518083038186803b1580156105d757600080fd5b505afa1580156105eb573d6000803e3d6000fd5b505050506040513d601f19601f8201168201806040525081019061060f91906118bd565b92915050565b60cc546001600160a01b031633146106405760405163075fd2b160e01b815260040160405180910390fd5b61271081106106965760405162461bcd60e51b815260206004820152601b60248201527f5f666565206d757374206265206c657373207468616e2031303025000000000060448201526064015b60405180910390fd5b60ca5460408051918252602082018390527f98cdc9dfc5155f707be718ea92ffc0543e53c39a64a025b7fd8de0d8122c4dd6910160405180910390a160ca55565b60cc546001600160a01b031633146107025760405163075fd2b160e01b815260040160405180910390fd5b6001600160a01b0391909116600090815260c960205260409020805460ff1916911515919091179055565b61073561112a565b61073f6000611184565b565b60cc546001600160a01b0316331461076c5760405163075fd2b160e01b815260040160405180910390fd5b60cc805473ffffffffffffffffffffffffffffffffffffffff19166001600160a01b0392909216919091179055565b33600090815260c9602052604090205460ff1615156001146107ff5760405162461bcd60e51b815260206004820152600c60248201527f4e6f7420617070726f7665640000000000000000000000000000000000000000604482015260640161068d565b600061080a83610ceb565b61081484846118a5565b61081e91906118d6565b90506108356001600160a01b0388163086846110bb565b836001600160a01b0316876001600160a01b03167f33c35f9541201e342d5e7467016e65a0a06182eb12a5f17103f71cec95b6cb298360405161087a91815260200190565b60405180910390a3600061088d86610ceb565b61089784886118d6565b6108a191906118d6565b90506108b86001600160a01b0389163089846110bb565b866001600160a01b0316886001600160a01b03167f33c35f9541201e342d5e7467016e65a0a06182eb12a5f17103f71cec95b6cb29836040516108fd91815260200190565b60405180910390a35050505050505050565b6060609b805461043890611854565b3360008181526098602090815260408083206001600160a01b0387168452909152812054909190838110156109bb5760405162461bcd60e51b815260206004820152602560248201527f45524332303a2064656372656173656420616c6c6f77616e63652062656c6f7760448201527f207a65726f000000000000000000000000000000000000000000000000000000606482015260840161068d565b6109c88286868403610d08565b506001949350505050565b6000336104c9818585610ebe565b600054610100900460ff1615808015610a015750600054600160ff909116105b80610a1b5750303b158015610a1b575060005460ff166001145b610a8d5760405162461bcd60e51b815260206004820152602e60248201527f496e697469616c697a61626c653a20636f6e747261637420697320616c72656160448201527f647920696e697469616c697a6564000000000000000000000000000000000000606482015260840161068d565b6000805460ff191660011790558015610ab0576000805461ff0019166101001790555b6001600160a01b038316610af95760405162461bcd60e51b815260206004820152601060248201526f0c081059191c995cdcc814995d995c9d60821b604482015260640161068d565b6001600160a01b038216610b425760405162461bcd60e51b815260206004820152601060248201526f0c081059191c995cdcc814995d995c9d60821b604482015260640161068d565b610b4a6111e3565b610b52611256565b610b5b83610c10565b60cc805473ffffffffffffffffffffffffffffffffffffffff199081166001600160a01b0386811691821790935560cd8054909216928516928317909155600090815260c96020526040808220805460ff199081166001908117909255938352912080549092161790558015610c0b576000805461ff0019169055604051600181527f7f26b83ff96e1f2b6a682f133852f6798a09c465da95921460cefb38474024989060200160405180910390a15b505050565b610c1861112a565b6001600160a01b038116610c945760405162461bcd60e51b815260206004820152602660248201527f4f776e61626c653a206e6577206f776e657220697320746865207a65726f206160448201527f6464726573730000000000000000000000000000000000000000000000000000606482015260840161068d565b610c9d81611184565b50565b60cc546001600160a01b03163314610ccb5760405163075fd2b160e01b815260040160405180910390fd5b60cc54610ce7906001600160a01b0384811691309116846110bb565b5050565b600060cb5460ca5483610cfe91906118ed565b61060f919061190c565b6001600160a01b038316610d6a5760405162461bcd60e51b8152602060048201526024808201527f45524332303a20617070726f76652066726f6d20746865207a65726f206164646044820152637265737360e01b606482015260840161068d565b6001600160a01b038216610dcb5760405162461bcd60e51b815260206004820152602260248201527f45524332303a20617070726f766520746f20746865207a65726f206164647265604482015261737360f01b606482015260840161068d565b6001600160a01b0383811660008181526098602090815260408083209487168084529482529182902085905590518481527f8c5be1e5ebec7d5bd14f71427d1e84f3dd0314c0f7b2291e5b200ac8c7c3b925910160405180910390a3505050565b6001600160a01b038381166000908152609860209081526040808320938616835292905220546000198114610eb85781811015610eab5760405162461bcd60e51b815260206004820152601d60248201527f45524332303a20696e73756666696369656e7420616c6c6f77616e6365000000604482015260640161068d565b610eb88484848403610d08565b50505050565b6001600160a01b038316610f3a5760405162461bcd60e51b815260206004820152602560248201527f45524332303a207472616e736665722066726f6d20746865207a65726f20616460448201527f6472657373000000000000000000000000000000000000000000000000000000606482015260840161068d565b6001600160a01b038216610f9c5760405162461bcd60e51b815260206004820152602360248201527f45524332303a207472616e7366657220746f20746865207a65726f206164647260448201526265737360e81b606482015260840161068d565b6001600160a01b0383166000908152609760205260409020548181101561102b5760405162461bcd60e51b815260206004820152602660248201527f45524332303a207472616e7366657220616d6f756e742065786365656473206260448201527f616c616e63650000000000000000000000000000000000000000000000000000606482015260840161068d565b6001600160a01b038085166000908152609760205260408082208585039055918516815290812080548492906110629084906118a5565b92505081905550826001600160a01b0316846001600160a01b03167fddf252ad1be2c89b69c2b068fc378daa952ba7f163c4a11628f55a4df523b3ef846040516110ae91815260200190565b60405180910390a3610eb8565b604080516001600160a01b0385811660248301528416604482015260648082018490528251808303909101815260849091019091526020810180517bffffffffffffffffffffffffffffffffffffffffffffffffffffffff166323b872dd60e01b179052610eb89085906112c9565b6033546001600160a01b0316331461073f5760405162461bcd60e51b815260206004820181905260248201527f4f776e61626c653a2063616c6c6572206973206e6f7420746865206f776e6572604482015260640161068d565b603380546001600160a01b0383811673ffffffffffffffffffffffffffffffffffffffff19831681179093556040519116919082907f8be0079c531659141344cd1fd0a4f28419497f9722a3daafe3b4186f6b6457e090600090a35050565b600054610100900460ff1661124e5760405162461bcd60e51b815260206004820152602b60248201527f496e697469616c697a61626c653a20636f6e7472616374206973206e6f74206960448201526a6e697469616c697a696e6760a81b606482015260840161068d565b61073f6113ae565b600054610100900460ff166112c15760405162461bcd60e51b815260206004820152602b60248201527f496e697469616c697a61626c653a20636f6e7472616374206973206e6f74206960448201526a6e697469616c697a696e6760a81b606482015260840161068d565b61073f611420565b600061131e826040518060400160405280602081526020017f5361666545524332303a206c6f772d6c6576656c2063616c6c206661696c6564815250856001600160a01b03166114949092919063ffffffff16565b805190915015610c0b578080602001905181019061133c919061192e565b610c0b5760405162461bcd60e51b815260206004820152602a60248201527f5361666545524332303a204552433230206f7065726174696f6e20646964206e60448201527f6f74207375636365656400000000000000000000000000000000000000000000606482015260840161068d565b600054610100900460ff166114195760405162461bcd60e51b815260206004820152602b60248201527f496e697469616c697a61626c653a20636f6e7472616374206973206e6f74206960448201526a6e697469616c697a696e6760a81b606482015260840161068d565b6001606555565b600054610100900460ff1661148b5760405162461bcd60e51b815260206004820152602b60248201527f496e697469616c697a61626c653a20636f6e7472616374206973206e6f74206960448201526a6e697469616c697a696e6760a81b606482015260840161068d565b61073f33611184565b60606114a384846000856114ab565b949350505050565b6060824710156115235760405162461bcd60e51b815260206004820152602660248201527f416464726573733a20696e73756666696369656e742062616c616e636520666f60448201527f722063616c6c0000000000000000000000000000000000000000000000000000606482015260840161068d565b6001600160a01b0385163b61157a5760405162461bcd60e51b815260206004820152601d60248201527f416464726573733a2063616c6c20746f206e6f6e2d636f6e7472616374000000604482015260640161068d565b600080866001600160a01b03168587604051611596919061194b565b60006040518083038185875af1925050503d80600081146115d3576040519150601f19603f3d011682016040523d82523d6000602084013e6115d8565b606091505b50915091506115e88282866115f3565b979650505050505050565b606083156116025750816104f2565b8251156116125782518084602001fd5b8160405162461bcd60e51b815260040161068d9190611658565b60005b8381101561164757818101518382015260200161162f565b83811115610eb85750506000910152565b602081526000825180602084015261167781604085016020870161162c565b601f01601f19169190910160400192915050565b80356001600160a01b03811681146116a257600080fd5b919050565b600080604083850312156116ba57600080fd5b6116c38361168b565b946020939093013593505050565b6000806000606084860312156116e657600080fd5b6116ef8461168b565b92506116fd6020850161168b565b9150604084013590509250925092565b60008060006060848603121561172257600080fd5b833592506117326020850161168b565b91506117406040850161168b565b90509250925092565b60006020828403121561175b57600080fd5b6104f28261168b565b60006020828403121561177657600080fd5b5035919050565b8015158114610c9d57600080fd5b6000806040838503121561179e57600080fd5b6117a78361168b565b915060208301356117b78161177d565b809150509250929050565b60008060008060008060c087890312156117db57600080fd5b6117e48761168b565b95506117f26020880161168b565b9450604087013593506118076060880161168b565b92506080870135915060a087013590509295509295509295565b6000806040838503121561183457600080fd5b61183d8361168b565b915061184b6020840161168b565b90509250929050565b600181811c9082168061186857607f821691505b6020821081141561188957634e487b7160e01b600052602260045260246000fd5b50919050565b634e487b7160e01b600052601160045260246000fd5b600082198211156118b8576118b861188f565b500190565b6000602082840312156118cf57600080fd5b5051919050565b6000828210156118e8576118e861188f565b500390565b60008160001904831182151516156119075761190761188f565b500290565b60008261192957634e487b7160e01b600052601260045260246000fd5b500490565b60006020828403121561194057600080fd5b81516104f28161177d565b6000825161195d81846020870161162c565b919091019291505056fea164736f6c6343000809000a",
  "linkReferences": {},
  "deployedLinkReferences": {}
}