{
  "_format": "hh-sol-artifact-1",
  "contractName": "Treasury",
  "sourceName": "contracts/Treasury.sol",
  "abi": [
    {
      "inputs": [],
      "name": "UNAUTHORIZED",
      "type": "error"
    },
    {
      "anonymous": false,
      "inputs": [
        {
          "indexed": true,
          "internalType": "address",
          "name": "owner",
          "type": "address"
        },
        {
          "indexed": true,
          "internalType": "address",
          "name": "spender",
          "type": "address"
        },
        {
          "indexed": false,
          "internalType": "uint256",
          "name": "value",
          "type": "uint256"
        }
      ],
      "name": "Approval",
      "type": "event"
    },
    {
      "anonymous": false,
      "inputs": [
        {
          "indexed": true,
          "internalType": "address",
          "name": "token",
          "type": "address"
        },
        {
          "indexed": false,
          "internalType": "uint256",
          "name": "amount",
          "type": "uint256"
        }
      ],
      "name": "DepositERC20",
      "type": "event"
    },
    {
      "anonymous": false,
      "inputs": [
        {
          "indexed": false,
          "internalType": "uint8",
          "name": "version",
          "type": "uint8"
        }
      ],
      "name": "Initialized",
      "type": "event"
    },
    {
      "anonymous": false,
      "inputs": [
        {
          "indexed": false,
          "internalType": "uint256",
          "name": "oldFee",
          "type": "uint256"
        },
        {
          "indexed": false,
          "internalType": "uint256",
          "name": "newFee",
          "type": "uint256"
        }
      ],
      "name": "NewPerformanceFee",
      "type": "event"
    },
    {
      "anonymous": false,
      "inputs": [
        {
          "indexed": true,
          "internalType": "address",
          "name": "previousOwner",
          "type": "address"
        },
        {
          "indexed": true,
          "internalType": "address",
          "name": "newOwner",
          "type": "address"
        }
      ],
      "name": "OwnershipTransferred",
      "type": "event"
    },
    {
      "anonymous": false,
      "inputs": [
        {
          "indexed": true,
          "internalType": "address",
          "name": "from",
          "type": "address"
        },
        {
          "indexed": true,
          "internalType": "address",
          "name": "to",
          "type": "address"
        },
        {
          "indexed": false,
          "internalType": "uint256",
          "name": "value",
          "type": "uint256"
        }
      ],
      "name": "Transfer",
      "type": "event"
    },
    {
      "anonymous": false,
      "inputs": [
        {
          "indexed": true,
          "internalType": "address",
          "name": "token",
          "type": "address"
        },
        {
          "indexed": true,
          "internalType": "address",
          "name": "recipient",
          "type": "address"
        },
        {
          "indexed": false,
          "internalType": "uint256",
          "name": "amount",
          "type": "uint256"
        }
      ],
      "name": "WithdrawERC20",
      "type": "event"
    },
    {
      "inputs": [
        {
          "internalType": "address",
          "name": "_governor",
          "type": "address"
        },
        {
          "internalType": "address",
          "name": "_escrow",
          "type": "address"
        }
      ],
      "name": "_initialize",
      "outputs": [],
      "stateMutability": "nonpayable",
      "type": "function"
    },
    {
      "inputs": [
        {
          "internalType": "address",
          "name": "owner",
          "type": "address"
        },
        {
          "internalType": "address",
          "name": "spender",
          "type": "address"
        }
      ],
      "name": "allowance",
      "outputs": [
        {
          "internalType": "uint256",
          "name": "",
          "type": "uint256"
        }
      ],
      "stateMutability": "view",
      "type": "function"
    },
    {
      "inputs": [
        {
          "internalType": "address",
          "name": "spender",
          "type": "address"
        },
        {
          "internalType": "uint256",
          "name": "amount",
          "type": "uint256"
        }
      ],
      "name": "approve",
      "outputs": [
        {
          "internalType": "bool",
          "name": "",
          "type": "bool"
        }
      ],
      "stateMutability": "nonpayable",
      "type": "function"
    },
    {
      "inputs": [
        {
          "internalType": "address",
          "name": "",
          "type": "address"
        }
      ],
      "name": "authorized",
      "outputs": [
        {
          "internalType": "bool",
          "name": "",
          "type": "bool"
        }
      ],
      "stateMutability": "view",
      "type": "function"
    },
    {
      "inputs": [
        {
          "internalType": "address",
          "name": "account",
          "type": "address"
        }
      ],
      "name": "balanceOf",
      "outputs": [
        {
          "internalType": "uint256",
          "name": "",
          "type": "uint256"
        }
      ],
      "stateMutability": "view",
      "type": "function"
    },
    {
      "inputs": [],
      "name": "decimals",
      "outputs": [
        {
          "internalType": "uint8",
          "name": "",
          "type": "uint8"
        }
      ],
      "stateMutability": "view",
      "type": "function"
    },
    {
      "inputs": [
        {
          "internalType": "address",
          "name": "spender",
          "type": "address"
        },
        {
          "internalType": "uint256",
          "name": "subtractedValue",
          "type": "uint256"
        }
      ],
      "name": "decreaseAllowance",
      "outputs": [
        {
          "internalType": "bool",
          "name": "",
          "type": "bool"
        }
      ],
      "stateMutability": "nonpayable",
      "type": "function"
    },
    {
      "inputs": [
        {
          "internalType": "uint256",
          "name": "_amount",
          "type": "uint256"
        },
        {
          "internalType": "address",
          "name": "_token",
          "type": "address"
        },
        {
          "internalType": "address",
          "name": "_sender",
          "type": "address"
        }
      ],
      "name": "deposit",
      "outputs": [],
      "stateMutability": "nonpayable",
      "type": "function"
    },
    {
      "inputs": [],
      "name": "escrow",
      "outputs": [
        {
          "internalType": "address",
          "name": "",
          "type": "address"
        }
      ],
      "stateMutability": "view",
      "type": "function"
    },
    {
      "inputs": [],
      "name": "fee",
      "outputs": [
        {
          "internalType": "uint256",
          "name": "",
          "type": "uint256"
        }
      ],
      "stateMutability": "view",
      "type": "function"
    },
    {
      "inputs": [],
      "name": "feeDivisor",
      "outputs": [
        {
          "internalType": "uint256",
          "name": "",
          "type": "uint256"
        }
      ],
      "stateMutability": "view",
      "type": "function"
    },
    {
      "inputs": [
        {
          "internalType": "uint256",
          "name": "_amount",
          "type": "uint256"
        }
      ],
      "name": "getFee",
      "outputs": [
        {
          "internalType": "uint256",
          "name": "",
          "type": "uint256"
        }
      ],
      "stateMutability": "view",
      "type": "function"
    },
    {
      "inputs": [
        {
          "internalType": "address",
          "name": "_token",
          "type": "address"
        }
      ],
      "name": "getTokenBalance",
      "outputs": [
        {
          "internalType": "uint256",
          "name": "",
          "type": "uint256"
        }
      ],
      "stateMutability": "view",
      "type": "function"
    },
    {
      "inputs": [],
      "name": "governor",
      "outputs": [
        {
          "internalType": "address",
          "name": "",
          "type": "address"
        }
      ],
      "stateMutability": "view",
      "type": "function"
    },
    {
      "inputs": [
        {
          "internalType": "address",
          "name": "spender",
          "type": "address"
        },
        {
          "internalType": "uint256",
          "name": "addedValue",
          "type": "uint256"
        }
      ],
      "name": "increaseAllowance",
      "outputs": [
        {
          "internalType": "bool",
          "name": "",
          "type": "bool"
        }
      ],
      "stateMutability": "nonpayable",
      "type": "function"
    },
    {
      "inputs": [],
      "name": "name",
      "outputs": [
        {
          "internalType": "string",
          "name": "",
          "type": "string"
        }
      ],
      "stateMutability": "view",
      "type": "function"
    },
    {
      "inputs": [],
      "name": "owner",
      "outputs": [
        {
          "internalType": "address",
          "name": "",
          "type": "address"
        }
      ],
      "stateMutability": "view",
      "type": "function"
    },
    {
      "inputs": [],
      "name": "renounceOwnership",
      "outputs": [],
      "stateMutability": "nonpayable",
      "type": "function"
    },
    {
      "inputs": [
        {
          "internalType": "address",
          "name": "_address",
          "type": "address"
        },
        {
          "internalType": "bool",
          "name": "_status",
          "type": "bool"
        }
      ],
      "name": "setAuthorized",
      "outputs": [],
      "stateMutability": "nonpayable",
      "type": "function"
    },
    {
      "inputs": [
        {
          "internalType": "uint256",
          "name": "_fee",
          "type": "uint256"
        }
      ],
      "name": "setFee",
      "outputs": [],
      "stateMutability": "nonpayable",
      "type": "function"
    },
    {
      "inputs": [],
      "name": "symbol",
      "outputs": [
        {
          "internalType": "string",
          "name": "",
          "type": "string"
        }
      ],
      "stateMutability": "view",
      "type": "function"
    },
    {
      "inputs": [
        {
          "internalType": "address",
          "name": "_token",
          "type": "address"
        },
        {
          "internalType": "uint256",
          "name": "_amount",
          "type": "uint256"
        }
      ],
      "name": "toGovernor",
      "outputs": [],
      "stateMutability": "nonpayable",
      "type": "function"
    },
    {
      "inputs": [],
      "name": "totalSupply",
      "outputs": [
        {
          "internalType": "uint256",
          "name": "",
          "type": "uint256"
        }
      ],
      "stateMutability": "view",
      "type": "function"
    },
    {
      "inputs": [
        {
          "internalType": "address",
          "name": "to",
          "type": "address"
        },
        {
          "internalType": "uint256",
          "name": "amount",
          "type": "uint256"
        }
      ],
      "name": "transfer",
      "outputs": [
        {
          "internalType": "bool",
          "name": "",
          "type": "bool"
        }
      ],
      "stateMutability": "nonpayable",
      "type": "function"
    },
    {
      "inputs": [
        {
          "internalType": "address",
          "name": "from",
          "type": "address"
        },
        {
          "internalType": "address",
          "name": "to",
          "type": "address"
        },
        {
          "internalType": "uint256",
          "name": "amount",
          "type": "uint256"
        }
      ],
      "name": "transferFrom",
      "outputs": [
        {
          "internalType": "bool",
          "name": "",
          "type": "bool"
        }
      ],
      "stateMutability": "nonpayable",
      "type": "function"
    },
    {
      "inputs": [
        {
          "internalType": "address",
          "name": "_address",
          "type": "address"
        }
      ],
      "name": "transferGovernor",
      "outputs": [],
      "stateMutability": "nonpayable",
      "type": "function"
    },
    {
      "inputs": [
        {
          "internalType": "address",
          "name": "newOwner",
          "type": "address"
        }
      ],
      "name": "transferOwnership",
      "outputs": [],
      "stateMutability": "nonpayable",
      "type": "function"
    },
    {
      "inputs": [
        {
          "internalType": "address",
          "name": "_token",
          "type": "address"
        },
        {
          "internalType": "address",
          "name": "_creator",
          "type": "address"
        },
        {
          "internalType": "uint256",
          "name": "_creatorCounterpart",
          "type": "uint256"
        },
        {
          "internalType": "address",
          "name": "_executor",
          "type": "address"
        },
        {
          "internalType": "uint256",
          "name": "_executorCounterpart",
          "type": "uint256"
        },
        {
          "internalType": "uint256",
          "name": "_cut",
          "type": "uint256"
        }
      ],
      "name": "withdraw",
      "outputs": [],
      "stateMutability": "nonpayable",
      "type": "function"
    }
  ],
  "bytecode": "0x6080604052600a60ca5561271060cb5534801561001b57600080fd5b5061193c8061002b6000396000f3fe608060405234801561001057600080fd5b50600436106101c45760003560e01c80638da5cb5b116100f9578063b918161111610097578063e2fdcc1711610071578063e2fdcc17146103e1578063e5c9c2ed146103f4578063f2fde38b14610407578063fcee45f41461041a57600080fd5b8063b91816111461037c578063dd62ed3e1461039f578063ddca3f43146103d857600080fd5b80639a36f932116100d35780639a36f9321461033a578063a457c2d714610343578063a9059cbb14610356578063b8cc9ce61461036957600080fd5b80638da5cb5b1461030e578063909a6e321461031f57806395d89b411461033257600080fd5b806339509351116101665780636efd1852116101405780636efd1852146102b757806370a08231146102ca578063711bf9b2146102f3578063715018a61461030657600080fd5b8063395093511461027e5780633aecd0e31461029157806369fe0e2d146102a457600080fd5b806318160ddd116101a257806318160ddd1461023557806323b872dd146102475780632e2d29841461025a578063313ce5671461026f57600080fd5b806306fdde03146101c9578063095ea7b3146101e75780630c340a241461020a575b600080fd5b6101d161042d565b6040516101de9190611620565b60405180910390f35b6101fa6101f536600461166f565b6104bf565b60405190151581526020016101de565b60cc5461021d906001600160a01b031681565b6040516001600160a01b0390911681526020016101de565b6099545b6040519081526020016101de565b6101fa610255366004611699565b6104d7565b61026d6102683660046116d5565b6104fd565b005b604051601281526020016101de565b6101fa61028c36600461166f565b61055a565b61023961029f366004611711565b610599565b61026d6102b236600461172c565b610619565b61026d6102c536600461166f565b6106db565b6102396102d8366004611711565b6001600160a01b031660009081526097602052604090205490565b61026d610301366004611753565b610726565b61026d61077c565b6033546001600160a01b031661021d565b61026d61032d36600461178a565b610790565b6101d1610904565b61023960cb5481565b6101fa61035136600461166f565b610913565b6101fa61036436600461166f565b6109c8565b61026d610377366004611711565b6109d6565b6101fa61038a366004611711565b60c96020526000908152604090205460ff1681565b6102396103ad3660046117e9565b6001600160a01b03918216600090815260986020908152604080832093909416825291909152205490565b61023960ca5481565b60cd5461021d906001600160a01b031681565b61026d6104023660046117e9565b610a30565b61026d610415366004611711565b610c23565b61023961042836600461172c565b610cb3565b6060609a805461043c9061181c565b80601f01602080910402602001604051908101604052809291908181526020018280546104689061181c565b80156104b55780601f1061048a576101008083540402835291602001916104b5565b820191906000526020600020905b81548152906001019060200180831161049857829003601f168201915b5050505050905090565b6000336104cd818585610cd0565b5060019392505050565b6000336104e5858285610df4565b6104f0858585610e86565b60019150505b9392505050565b6105126001600160a01b038316823086611083565b816001600160a01b03167f27f44e9a3001987fb4861e2d482738bc6a12b52de72ca3a5216157b75c28f81c8460405161054d91815260200190565b60405180910390a2505050565b3360008181526098602090815260408083206001600160a01b03871684529091528120549091906104cd908290869061059490879061186d565b610cd0565b6040516370a0823160e01b81523060048201526000906001600160a01b038316906370a082319060240160206040518083038186803b1580156105db57600080fd5b505afa1580156105ef573d6000803e3d6000fd5b505050506040513d601f19601f820116820180604052508101906106139190611885565b92915050565b60cc546001600160a01b031633146106445760405163075fd2b160e01b815260040160405180910390fd5b612710811061069a5760405162461bcd60e51b815260206004820152601b60248201527f5f666565206d757374206265206c657373207468616e2031303025000000000060448201526064015b60405180910390fd5b60ca5460408051918252602082018390527f98cdc9dfc5155f707be718ea92ffc0543e53c39a64a025b7fd8de0d8122c4dd6910160405180910390a160ca55565b60cc546001600160a01b031633146107065760405163075fd2b160e01b815260040160405180910390fd5b60cc54610722906001600160a01b038481169130911684611083565b5050565b60cc546001600160a01b031633146107515760405163075fd2b160e01b815260040160405180910390fd5b6001600160a01b0391909116600090815260c960205260409020805460ff1916911515919091179055565b6107846110f2565b61078e600061114c565b565b33600090815260c9602052604090205460ff1615156001146107f45760405162461bcd60e51b815260206004820152600c60248201527f4e6f7420617070726f76656400000000000000000000000000000000000000006044820152606401610691565b60006107ff83610cb3565b610809848461186d565b610813919061189e565b905061082a6001600160a01b038816308684611083565b836001600160a01b0316876001600160a01b03167f33c35f9541201e342d5e7467016e65a0a06182eb12a5f17103f71cec95b6cb298360405161086f91815260200190565b60405180910390a3600061088286610cb3565b61088c848861189e565b610896919061189e565b90506108ad6001600160a01b038916308984611083565b866001600160a01b0316886001600160a01b03167f33c35f9541201e342d5e7467016e65a0a06182eb12a5f17103f71cec95b6cb29836040516108f291815260200190565b60405180910390a35050505050505050565b6060609b805461043c9061181c565b3360008181526098602090815260408083206001600160a01b0387168452909152812054909190838110156109b05760405162461bcd60e51b815260206004820152602560248201527f45524332303a2064656372656173656420616c6c6f77616e63652062656c6f7760448201527f207a65726f0000000000000000000000000000000000000000000000000000006064820152608401610691565b6109bd8286868403610cd0565b506001949350505050565b6000336104cd818585610e86565b60cc546001600160a01b03163314610a015760405163075fd2b160e01b815260040160405180910390fd5b60cc805473ffffffffffffffffffffffffffffffffffffffff19166001600160a01b0392909216919091179055565b600054610100900460ff1615808015610a505750600054600160ff909116105b80610a6a5750303b158015610a6a575060005460ff166001145b610adc5760405162461bcd60e51b815260206004820152602e60248201527f496e697469616c697a61626c653a20636f6e747261637420697320616c72656160448201527f647920696e697469616c697a65640000000000000000000000000000000000006064820152608401610691565b6000805460ff191660011790558015610aff576000805461ff0019166101001790555b6001600160a01b038316610b555760405162461bcd60e51b815260206004820152601060248201527f30204164647265737320526576657274000000000000000000000000000000006044820152606401610691565b610b5d6111ab565b610b6561121e565b610b6e83610c23565b60cc805473ffffffffffffffffffffffffffffffffffffffff199081166001600160a01b0386811691821790935560cd8054909216928516928317909155600090815260c96020526040808220805460ff199081166001908117909255938352912080549092161790558015610c1e576000805461ff0019169055604051600181527f7f26b83ff96e1f2b6a682f133852f6798a09c465da95921460cefb38474024989060200160405180910390a15b505050565b610c2b6110f2565b6001600160a01b038116610ca75760405162461bcd60e51b815260206004820152602660248201527f4f776e61626c653a206e6577206f776e657220697320746865207a65726f206160448201527f64647265737300000000000000000000000000000000000000000000000000006064820152608401610691565b610cb08161114c565b50565b600060cb5460ca5483610cc691906118b5565b61061391906118d4565b6001600160a01b038316610d325760405162461bcd60e51b8152602060048201526024808201527f45524332303a20617070726f76652066726f6d20746865207a65726f206164646044820152637265737360e01b6064820152608401610691565b6001600160a01b038216610d935760405162461bcd60e51b815260206004820152602260248201527f45524332303a20617070726f766520746f20746865207a65726f206164647265604482015261737360f01b6064820152608401610691565b6001600160a01b0383811660008181526098602090815260408083209487168084529482529182902085905590518481527f8c5be1e5ebec7d5bd14f71427d1e84f3dd0314c0f7b2291e5b200ac8c7c3b925910160405180910390a3505050565b6001600160a01b038381166000908152609860209081526040808320938616835292905220546000198114610e805781811015610e735760405162461bcd60e51b815260206004820152601d60248201527f45524332303a20696e73756666696369656e7420616c6c6f77616e63650000006044820152606401610691565b610e808484848403610cd0565b50505050565b6001600160a01b038316610f025760405162461bcd60e51b815260206004820152602560248201527f45524332303a207472616e736665722066726f6d20746865207a65726f20616460448201527f64726573730000000000000000000000000000000000000000000000000000006064820152608401610691565b6001600160a01b038216610f645760405162461bcd60e51b815260206004820152602360248201527f45524332303a207472616e7366657220746f20746865207a65726f206164647260448201526265737360e81b6064820152608401610691565b6001600160a01b03831660009081526097602052604090205481811015610ff35760405162461bcd60e51b815260206004820152602660248201527f45524332303a207472616e7366657220616d6f756e742065786365656473206260448201527f616c616e636500000000000000000000000000000000000000000000000000006064820152608401610691565b6001600160a01b0380851660009081526097602052604080822085850390559185168152908120805484929061102a90849061186d565b92505081905550826001600160a01b0316846001600160a01b03167fddf252ad1be2c89b69c2b068fc378daa952ba7f163c4a11628f55a4df523b3ef8460405161107691815260200190565b60405180910390a3610e80565b604080516001600160a01b0385811660248301528416604482015260648082018490528251808303909101815260849091019091526020810180517bffffffffffffffffffffffffffffffffffffffffffffffffffffffff166323b872dd60e01b179052610e80908590611291565b6033546001600160a01b0316331461078e5760405162461bcd60e51b815260206004820181905260248201527f4f776e61626c653a2063616c6c6572206973206e6f7420746865206f776e65726044820152606401610691565b603380546001600160a01b0383811673ffffffffffffffffffffffffffffffffffffffff19831681179093556040519116919082907f8be0079c531659141344cd1fd0a4f28419497f9722a3daafe3b4186f6b6457e090600090a35050565b600054610100900460ff166112165760405162461bcd60e51b815260206004820152602b60248201527f496e697469616c697a61626c653a20636f6e7472616374206973206e6f74206960448201526a6e697469616c697a696e6760a81b6064820152608401610691565b61078e611376565b600054610100900460ff166112895760405162461bcd60e51b815260206004820152602b60248201527f496e697469616c697a61626c653a20636f6e7472616374206973206e6f74206960448201526a6e697469616c697a696e6760a81b6064820152608401610691565b61078e6113e8565b60006112e6826040518060400160405280602081526020017f5361666545524332303a206c6f772d6c6576656c2063616c6c206661696c6564815250856001600160a01b031661145c9092919063ffffffff16565b805190915015610c1e578080602001905181019061130491906118f6565b610c1e5760405162461bcd60e51b815260206004820152602a60248201527f5361666545524332303a204552433230206f7065726174696f6e20646964206e60448201527f6f742073756363656564000000000000000000000000000000000000000000006064820152608401610691565b600054610100900460ff166113e15760405162461bcd60e51b815260206004820152602b60248201527f496e697469616c697a61626c653a20636f6e7472616374206973206e6f74206960448201526a6e697469616c697a696e6760a81b6064820152608401610691565b6001606555565b600054610100900460ff166114535760405162461bcd60e51b815260206004820152602b60248201527f496e697469616c697a61626c653a20636f6e7472616374206973206e6f74206960448201526a6e697469616c697a696e6760a81b6064820152608401610691565b61078e3361114c565b606061146b8484600085611473565b949350505050565b6060824710156114eb5760405162461bcd60e51b815260206004820152602660248201527f416464726573733a20696e73756666696369656e742062616c616e636520666f60448201527f722063616c6c00000000000000000000000000000000000000000000000000006064820152608401610691565b6001600160a01b0385163b6115425760405162461bcd60e51b815260206004820152601d60248201527f416464726573733a2063616c6c20746f206e6f6e2d636f6e74726163740000006044820152606401610691565b600080866001600160a01b0316858760405161155e9190611913565b60006040518083038185875af1925050503d806000811461159b576040519150601f19603f3d011682016040523d82523d6000602084013e6115a0565b606091505b50915091506115b08282866115bb565b979650505050505050565b606083156115ca5750816104f6565b8251156115da5782518084602001fd5b8160405162461bcd60e51b81526004016106919190611620565b60005b8381101561160f5781810151838201526020016115f7565b83811115610e805750506000910152565b602081526000825180602084015261163f8160408501602087016115f4565b601f01601f19169190910160400192915050565b80356001600160a01b038116811461166a57600080fd5b919050565b6000806040838503121561168257600080fd5b61168b83611653565b946020939093013593505050565b6000806000606084860312156116ae57600080fd5b6116b784611653565b92506116c560208501611653565b9150604084013590509250925092565b6000806000606084860312156116ea57600080fd5b833592506116fa60208501611653565b915061170860408501611653565b90509250925092565b60006020828403121561172357600080fd5b6104f682611653565b60006020828403121561173e57600080fd5b5035919050565b8015158114610cb057600080fd5b6000806040838503121561176657600080fd5b61176f83611653565b9150602083013561177f81611745565b809150509250929050565b60008060008060008060c087890312156117a357600080fd5b6117ac87611653565b95506117ba60208801611653565b9450604087013593506117cf60608801611653565b92506080870135915060a087013590509295509295509295565b600080604083850312156117fc57600080fd5b61180583611653565b915061181360208401611653565b90509250929050565b600181811c9082168061183057607f821691505b6020821081141561185157634e487b7160e01b600052602260045260246000fd5b50919050565b634e487b7160e01b600052601160045260246000fd5b6000821982111561188057611880611857565b500190565b60006020828403121561189757600080fd5b5051919050565b6000828210156118b0576118b0611857565b500390565b60008160001904831182151516156118cf576118cf611857565b500290565b6000826118f157634e487b7160e01b600052601260045260246000fd5b500490565b60006020828403121561190857600080fd5b81516104f681611745565b600082516119258184602087016115f4565b919091019291505056fea164736f6c6343000809000a",
  "linkReferences": {},
  "deployedLinkReferences": {}
}